:0200000048288E
:10000800F000030EF1000A0883120313AB0083010A
:100018008A010C1F142883160C1F142883120C1332
:100028000B1D18288B1A0B11831203130C1C212883
:1000380083160C1C212883120C10831203138C1CAA
:100048002A2883168C1C2A2883128C1083120313E7
:100058008C1E362883168C1E362883128C121A089A
:100068008316A300831203130C1E3F2883160C1E4D
:100078003F2883120C12831203132B088A00710E77
:100088008300F00E700E0900830185018601870147
:10009800880189012F3083168500F0308600803072
:1000A8008700880103308900C730810083128C01E2
:1000B8008D0183168C018D010B128B160B17831281
:1000C8000C101821083083120313A0006414703038
:1000D8008316A0003030A1003A30A2003030A300CF
:1000E8003030A4003030A5003030A6003030A700F2
:1000F8002030A8002030A9002030AA002030AB0012
:100108002030AC002030AD002030AE002030AF00F1
:100118002030B0002030B1002030B2002030B300D1
:100128002030B4002030B5002030B6002030B700B1
:100138002030B8002030B9002030BA002030BB0091
:100148002030BC002030BD002030BE002030BF0071
:100158008312A201A301061583120313061EBA28EF
:10016800861ABA280A308600DC20B02883120313C6
:10017800061AC428861EC42805308600CD20B0285B
:1001880083120313061AB028861AB0288601EB20BA
:10019800B028FF3083120313DB000130DC00DD01DF
:1001A8000430DE001030DF00E0011530E100F828EF
:1001B800FF3083120313DB000130DC00DD01023065
:1001C800DE001030DF00E0011330E100F828FF30D6
:1001D80083120313DB000130DC00DD01DE01DF01E7
:1001E800E0010130E100F82883120313A4018B1306
:1001F8000C12831698168312A40107308312031376
:100208002402031816295B3024078400831300088E
:100218009900831203130C1E0D29831203130C1269
:10022800A40A01298B1708001F30831603139900AD
:10023800980183129801981783168C16981608004F
:10024800FF01FF01FF010E307F0203183429FF0D63
:10025800FF0D7F1083120313861A7F14FF0A2729C4
:100268007F0808000230F6218030F6218316031338
:100278002008DC21831603132108DC2183160313CD
:100288002208DC21831603132308DC2183160313B9
:100298002408DC21831603132508DC2183160313A5
:1002A8002608DC21831603132708DC218316031391
:1002B8002808DC21831603132908DC21831603137D
:1002C8002A08DC21831603132B08DC218316031369
:1002D8002C08DC21831603132D08DC218316031355
:1002E8002E08DC21831603132F08DC210230F621A7
:1002F8008030F621C030F621831603133008DC2144
:10030800831603133108DC21831603133208DC211A
:10031800831603133308DC21831603133408DC2106
:10032800831603133508DC21831603133608DC21F2
:10033800831603133708DC21831603133808DC21DE
:10034800831603133908DC21831603133A08DC21CA
:10035800831603133B08DC21831603133C08DC21B6
:10036800831603133D08DC21831603133E08DC21A2
:10037800831603133F08DC210230F6218030F62172
:100388000330831603138800831264150818641158
:10039800031408180310B10CE4158818E4110314A9
:1003A80088180310B20C83168801831264100800A1
:1003B800FF008B137F088312031388000708AB0024
:1003C8002B16AB152B08870000000000000000006A
:1003D8000000AB112B088700F522003A031DF02915
:1003E8008B17542BFF008B137F088312031388008D
:1003F8000708AB002B12AB152B0887000000000084
:10040800000000000000AB112B088700F522003A1D
:10041800031D0A2A8B17542BFF008B137F088312A6
:10042800031388000708AB002B12AB15000000006F
:10043800000000000000AB112B0887008B17542B1D
:1004480083120313EA01EB01EC01ED01EE01273001
:100458007F02031C352A031D392A10307F02031836
:10046800392A83120313EA014D2A27307F02031C1D
:100478004D2A031D432A10307F02031C4D2A2730C2
:10048800FF021030FF02031CFF0383120313EA0A62
:10049800392A03307F02031C572A031D5B2AE830E0
:1004A8007F0203185B2A83120313EB016F2A0330C0
:1004B8007F02031C6F2A031D652AE8307F02031C94
:1004C8006F2A0330FF02E830FF02031CFF03831288
:1004D8000313EB0A5B2A7F08031D7A2A64307F0224
:1004E80003187A2A83120313EC01892A7F08031D53
:1004F800812A64307F02031C892A6430FF02031CAE
:10050800FF0383120313EC0A7A2A7F08031D942A37
:100518000A307F020318942A83120313ED01A32AD9
:100528007F08031D9B2A0A307F02031CA32A0A3076
:10053800FF02031CFF0383120313ED0A942A7F08AA
:1005480083120313EE006A08B722EA006B08B72289
:10055800EB006C08B722EC006D08B722ED006E08BE
:10056800B722EE000800FF00FF08031930347F03AC
:10057800031931347F08023A031932347F08033AE9
:10058800031933347F08043A031934347F08053AD1
:10059800031935347F08063A031936347F08073AB9
:1005A800031937347F08083A031938347F08093AA1
:1005B800031939340034FF00FF080319F42AFF0334
:1005C800FF30FF00FF080319E02AFF03FF30FF0098
:1005D800FF080319E62AFF03000000000000EC2AC8
:1005E8000800FF01831203130708AB00C730AB05EF
:1005F8002B088700FF30831688008312AB162B0860
:1006080087002830AB042B08870000000808FF008B
:100618008030FF05AB112B088700AB122B08870031
:10062800831688017F08080083120313AB01870132
:100638000F30F30081010B110B1D202B0B11F30B55
:10064800202B303010220F30F30083120313810166
:100658000B110B1D2D2B0B11F30B2D2B30301022F2
:100668008312031381010B110B1D382B303010221C
:100678008312031381010B110B1D402B3830F62117
:100688000830F6210130F6210630F6210C30F62923
:100698000930FF00FF080319532BFF034E2B0800F6
:1006A8000000000000000000000000000000000042
:1006B8000000000000000000000000000000000032
:1006C8000000000000000000000000000000000022
:1006D8000000000000000000000000000000000012
:1006E8000000000000000000000000000000000002
:1006F80000000000000000000000000000000000F2
:1007080000000000000000000000000000000000E1
:1007180000000000000000000000000000000000D1
:06072800000000000800C3
:02400E00723FFF
:00000001FF
