:0200000048288E
:10000800F000030EF1000A0883120313AF00830106
:100018008A010C1F142883160C1F142883120C1332
:100028000B1D18288B1A0B11831203130C1C212883
:1000380083160C1C212883120C10831203138C1CAA
:100048002A2883168C1C2A2883128C1083120313E7
:100058008C1E362883168C1E362883128C121A089A
:100068008316A300831203130C1E3F2883160C1E4D
:100078003F2883120C12831203132F088A00710E73
:100088008300F00E700E0900830185018601870147
:10009800880189012F3083168500F0308600803072
:1000A8008700880103308900C7308100BD2383128F
:1000B80003138C018D0183168C018D010B128B1695
:1000C8000B1783120C10A021083083120313A00011
:1000D800681458308316A0003A30A1002030A200DE
:1000E8003030A3003030A4003030A5003030A600F6
:1000F8003030A7002030A8002030A9002030AA0006
:100108002030AB002030AC002030AD002030AE00F5
:100118002030AF005930B0003A30B1002030B20082
:100128003030B3003030B4003030B5003030B60075
:100138003030B7002030B8002030B9002030BA0085
:100148002030BB002030BC002030BD002030BE0075
:100158002030BF00B82183120313A201A301A40118
:10016800A501061583120313061EBE28861ABE288B
:100178002721C42883120313061AC428861A1621B5
:1001880083120313061FCC28861BCC283821DE28AF
:1001980083120313061BD428861FD4284921DE287E
:1001A80083120313061ADE28861ADE28061BDE28A9
:1001B800861F5A21AC21831203132708A40028089C
:1001C800A5002408A6002508A700A6228312031369
:1001D8006E088316A30083126F088316A40076089E
:1001E800A5007708A6007808A700B2218312031398
:1001F8002708A4002808A5002408A6002508A700A9
:10020800A622831203136E088316B30083126F08A5
:100218008316B4007608B5007708B6007808B700EA
:10022800B821B628FF3083120313DF000130E00045
:10023800E1010430E2001030E300E4016921831297
:100248000313E5008029FF3083120313DF00013018
:10025800E000E1010230E2001030E300E40169212E
:1002680083120313E5008029FF3083120313DF0094
:100278000130E000E1010830E200E3011030E40061
:10028800692183120313E5008029FF3083120313C9
:10029800DF000130E000E1011030E200E30110303E
:1002A800E400692183120313E5008029FF308312DB
:1002B8000313DF000130E000E101E201E301E401A2
:1002C800692183120313E500802983120313A60111
:1002D8000130A700063083120313270203187C2974
:1002E8005F302707840083130008A607A70A6E2932
:1002F800831203132608080083120313A6018B1325
:100308000C12831698168312A60107308312031362
:10031800260203189E295F302607840083130008ED
:100328009900831203130C1E9529831203130C12D0
:10033800A60A89298B1708001F3083160313990012
:10034800980183129801981783168C16981608003E
:1003580083120313A701A8012708080083120313B7
:10036800A701A801270808000230782280307822E7
:100378008316031320085E228316031321085E22C6
:100388008316031322085E228316031323085E22B2
:100398008316031324085E228316031325085E229E
:1003A8008316031326085E228316031327085E228A
:1003B8008316031328085E228316031329085E2276
:1003C800831603132A085E22831603132B085E2262
:1003D800831603132C085E22831603132D085E224E
:1003E800831603132E085E22831603132F085E223A
:1003F8000230782280307822C030782283160313A6
:1004080030085E228316031331085E228316031315
:1004180032085E228316031333085E228316031301
:1004280034085E228316031335085E2283160313ED
:1004380036085E228316031337085E2283160313D9
:1004480038085E228316031339085E2283160313C5
:100458003A085E22831603133B085E2283160313B1
:100468003C085E22831603133D085E22831603139D
:100478003E085E22831603133F085E22023078226C
:10048800803078220330831603138800831268159E
:1004980008186811031408180310B50CE815881813
:1004A800E811031488180310B60C83168801831208
:1004B8006810080083120313A6008B13260888000F
:1004C8000708AF002F16AF152F088700000000009F
:1004D800000000000000AF112F0887009923003AA0
:1004E800031D722A8B17F92B83120313A6008B1393
:1004F800260888000708AF002F12AF152F088700BD
:1005080000000000000000000000AF112F08870065
:100518009923003A031D8C2A8B17F92B8312031396
:10052800A6008B13260888000708AF002F12AF1506
:1005380000000000000000000000AF112F08870035
:100548008B17F92B83120313EE01EF01F601F70164
:10055800F80127302702031CB72A031DBB2A1030D5
:1005680026020318BB2A83120313EE01D12A27306F
:10057800831203132702031CD12A031DC72A103034
:100588002602031CD12A273083120313A702103036
:10059800A602031CA703EE0ABB2A03308312031327
:1005A8002702031CDD2A031DE12AE830260203186E
:1005B800E12A83120313EF01F72A0330831203138E
:1005C8002702031CF72A031DED2AE8302602031C24
:1005D800F72A033083120313A702E830A602031C8C
:1005E800A703EF0AE12A831203132708031D022B2E
:1005F800643026020318022BF601132B831203130F
:100608002708031D0B2B64302602031C132B6430B0
:1006180083120313A602031CA703F60A022B8312F4
:1006280003132708031D1E2B0A30260203181E2B4E
:10063800F7012F2B831203132708031D272B0A30DA
:100648002602031C2F2B0A3083120313A602031C55
:10065800A703F70A1E2B831203132608F8006E0857
:10066800472383120313EE006F08472383120313F3
:10067800EF0076084723F60077084723F700780845
:100688004723F800080083120313A800A8080319D9
:1006980030348312031328030319313483120313EC
:1006A8002808023A03193234831203132808033A3C
:1006B80003193334831203132808043A0319343412
:1006C800831203132808053A0319353483120313D8
:1006D8002808063A03193634831203132808073A00
:1006E80003193734831203132808083A03193834D6
:1006F800831203132808093A031939340034FF0018
:10070800FF080319982BFF03FF30FF00FF080319A8
:10071800842BFF03FF30FF00FF0803198A2BFF0318
:10072800000000000000902B080083120313A701AB
:100738000708AF00C730AF052F088700FF308316C2
:1007480088008312AF162F0887002830AF042F08BF
:10075800870000000808A7008030A705AF112F0800
:100768008700AF122F088700831688018312270895
:10077800080083120313AF0187010F30F3008101D2
:100788000B110B1DC52B0B11F30BC52B303092220F
:100798000F30F3008312031381010B110B1DD22BB1
:1007A8000B11F30BD22B30309222831203138101E9
:1007B8000B110B1DDD2B30309222831203138101A4
:1007C8000B110B1DE52B38307822083078220130C8
:1007D8007822063078220C30782A0930FF00FF088A
:1007E8000319F82BFF03F32B08000000000000009A
:1007F80000000000000000000000000000000000F1
:1008080000000000000000000000000000000000E0
:1008180000000000000000000000000000000000D0
:1008280000000000000000000000000000000000C0
:1008380000000000000000000000000000000000B0
:1008480000000000000000000000000000000000A0
:100858000000000000000000000000000000000090
:100868000000000000000000000000000000080078
:02400E00723FFF
:00000001FF
